:100000000C9439010C946A010C946A010C946A01F5
:100010000C946A010C946A010C946A010C946A01B4
:100020000C946A010C946A010C946A010C946A01A4
:100030000C946A010C948D070C946A010C946A016B
:100040000C946A010C94C1080C946A010C946A0126
:100050000C946A010C946A010C946A010C94ED07EB
:100060000C946A010C946A010C946A010C946A0164
:100070000C946A010C946A010C946A010C946A0154
:100080000C9493080C946A010C946A010C946A0114
:100090000C946A010C946A010C946A010C946A0134
:1000A0000C946A010C946A010C9465080C946A0122
:1000B0000C946A010C946A010C946A010C94370840
:1000C0000C946A010C946A010C946A010C946A0104
:1000D0000C946A010C946A010C946A010C946A01F4
:1000E0000C946A010C945F020C947D020C94FF0145
:1000F0000C9485020C9481020C94CD030C944A025A
:100100000C94FA0E0C948F020C9469020C94540215
:100110000C947D060C945C020C9450020C94BC026E
:100120000C94ED020C9465020C9477020C9473020B
:100130000C9458020C948A020C94E10F0C948B02DC
:100140000C9472030C94CE030C946F0200002100F7
:10015000240027002A002D00300033000101000098
:10016000040107010A0100000A0B02090C0D0E0828
:100170000703040100000000000000000000000070
:10018000000000000000000000000000000000006F
:10019000000012111000000000000000000000002C
:1001A000000000000000000000000000000022002D
:1001B000250028002B002E00310034000201000031
:1001C000050108010B010200002000230026002980
:1001D000002C002F0032000001000003010601097D
:1001E0000105050505070508080808020202020ABC
:1001F0000A080804040404010101010101010103CA
:1002000003030303030303040707070C0C0C0C0C84
:100210000C0C0C0202020206060606060606060B77
:100220000B0B0B0B0B0B0B010210202008081020EE
:100230004010204080020102010804020101020472
:100240000810204080804020100804020180040231
:100250000180402010080402010804020101020488
:100260000810204080010204081020408000FA0E8F
:10027000E10F11241FBECFEFD1E2DEBFCDBF00E002
:100280000CBF12E0A0E0B2E0E6E9F7E200E00BBF4D
:1002900002C007900D92A63CB107D9F724E0A6EC66
:1002A000B2E001C01D92A334B207E1F711E0C8E348
:1002B000D1E000E006C021970109802FFE010E94D5
:1002C0009211C733D10780E00807A9F70E943409CB
:1002D0000C94B9130C94000096E0899FD00111246E
:1002E000A854BC4F90967C936E935F9791E0919643
:1002F0009C939197E0912504F09126049091240419
:10030000992339F0309751F0811108C08091D403BE
:100310001994309719F05C968C91FACF0895CF928A
:10032000DF92EF92FF920F931F9396E0899FF00167
:100330001124E854FC4F11A2278D30A12130310542
:1003400051F178F02230310509F451C023303105E4
:1003500009F452C01F910F91FF90EF90DF90CF9062
:1003600008956623B9F361E070E00E946C012FB735
:10037000F8948091B4039091B503A091B603B09125
:10038000B7032FBF8093100490931104A09312041D
:10039000B0931304DFCF9FB7F894C090B403D0900C
:1003A000B503E090B603F090B7039FBF009110042F
:1003B000109111042091120430911304C01AD10A33
:1003C000E20AF30A009122041091230430E020E0B5
:1003D0000C151D052E053F0550F462E070E01F91DD
:1003E0000F91FF90EF90DF90CF900C946C01611112
:1003F000B1CF63E070E0F3CF70E060E0F0CFAF9298
:10040000BF92CF92DF92EF92FF920F931F93CF9301
:10041000DF936C017B018B01040F151FEB015E0163
:10042000AE18BF08C017D10759F06991D601ED91F8
:10043000FC910190F081E02DC6011995892B79F787
:10044000C501DF91CF911F910F91FF90EF90DF9049
:10045000CF90BF90AF9008958150823108F05AC07C
:10046000E82FF0E08827E85CFD4F8F4F0C94921145
:1004700058025C024A02500254028A025F0265027C
:1004800069026F02730277027D0281028A0285028D
:100490008B028F02809180008F7780938000089577
:1004A000809180008F7DF9CF80918000877FF5CF8C
:1004B00084B58F7784BD089584B58F7DFBCF8091FF
:1004C000B0008F778093B00008958091B0008F7D49
:1004D000F9CF809190008F7780939000089580915C
:1004E00090008F7DF9CF80919000877FF5CF80912C
:1004F000A0008F778093A00008958091A0008F7D49
:10050000F9CF8091A000877FF5CF809120018F7770
:10051000809320010895809120018F7DF9CF8091F3
:100520002001877FF5CFCF93DF93282F30E0F901AB
:10053000EA59FE4F8491F901E95DFD4FD491F9012B
:10054000EF51FE4FC491CC23A1F081110E942C02E7
:10055000EC2FF0E0EE0FFF1FE953FE4FA591B49191
:10056000EC91ED2381E090E009F480E0DF91CF9100
:10057000089580E090E0FACF862F0C9493021F93A9
:10058000CF93DF93282F30E0F901EA59FE4F849191
:10059000F901E95DFD4FD491F901EF51FE4FC4918E
:1005A000CC23A9F0162F81110E942C02EC2FF0E031
:1005B000EE0FFF1FE455FE4FA591B4918FB7F8944D
:1005C000EC91111108C0D095DE23DC938FBFDF9131
:1005D000CF911F910895DE2BF8CF862F642F0C94B6
:1005E000BF029091180289130DC0E6ECF1E0E4918E
:1005F0009FEF90931802E230E1F038F4EE2381F09F
:10060000E13089F060E00C94BF02E43049F110F170
:10061000E530C1F7909173009D7F90937300F2CF06
:1006200010926E00EFCF90916F009D7F90936F00BE
:10063000E9CF909170009D7F9093700091E090932E
:10064000B0009091B100987F94609093B1001092A7
:10065000B300D8CF909171009D7F90937100D2CF5D
:10066000909172009D7F90937200CCCFCF93DF93D7
:1006700090E0FC01E95DFD4F24918F519E4FFC01FC
:1006800084918823C9F090E0880F991FFC01E45BF6
:10069000FE4FA591B491FC01E455FE4FC591D49154
:1006A00061110DC09FB7F8948C91209582238C9393
:1006B0008881282328839FBFDF91CF9108956230DE
:1006C00051F49FB7F8943C91822F809583238C93AB
:1006D000E8812E2BEFCF8FB7F894EC912E2B2C9333
:1006E0008FBFEACF862F642F0C9436033FB7F89460
:1006F00080915C0390915D03A0915E03B0915F03D4
:1007000026B5A89B05C02F3F19F00196A11DB11D6C
:100710003FBFBA2FA92F982F8827BC01CD01620FA8
:10072000711D811D911D42E0660F771F881F991F63
:100730004A95D1F708958F929F92AF92BF92CF9230
:10074000DF92EF92FF924B015C010E9476036B01F6
:100750007C010E9476036C197D098E099F09683E11
:10076000734081059105A8F321E0821A9108A10840
:10077000B10888EEC80E83E0D81EE11CF11C81147C
:100780009104A104B10429F7FF90EF90DF90CF907E
:10079000BF90AF909F908F900895089590E080E073
:1007A0000895CF92DF92EF92FF92CF93DF93EC0107
:1007B000603282E07807CCF5653B710514F064EB9C
:1007C00070E0898128E830E0281B310987FD3395E6
:1007D000220F331F220F331F6901330FEE08FF086A
:1007E0008A8128E532E0281B310987FD3395220FE5
:1007F000331F220F331F032E000C440B550B2C19F3
:100800003D094E095F09DB0177FF02C0B0E0A0E0BF
:100810000E94171124EB30E040E050E00E94ED1000
:10082000C20ED31EE41EF51EB601E881E03370F55A
:10083000298188E890E0821B910927FD9395880F14
:10084000991F880F991F681779077CF02A8188E51E
:1008500092E0821B910927FD9395880F991F880FBD
:10086000991F681779070CF4CB010297880F991F1D
:100870004FB7F8942E2F30E0F901EE0FFF1FE20F73
:10088000F31FE553FD4F928381834FBFDF91CF91DB
:10089000FF90EF90DF90CF9008951F93CF93DF9359
:1008A000EC01162F8881803308F04EC061E0812F63
:1008B0000E9436038881282F30E0F901EE0FFF1FD8
:1008C000E20FF31FE553FD4F1F736081607C612BC6
:1008D000608319821A822CE0622F0E948611829F07
:1008E000B001112430E020E0AB01420F531FFA01A8
:1008F000EE0FFF1FE40FF51FE553FD4F908196FDAE
:1009000016C02F5F3F4F2C30310571F7813009F54C
:100910001092800082E080938100109285001092F6
:100920008400B19A80916F00826080936F00E881AB
:100930008E2F90E0FC01EE0FFF1FE80FF91FE5532B
:10094000FD4F8081806480838881DF91CF911F91EA
:100950000895823061F4109290008093910010927B
:1009600095001092940088BB80937100E0CF833093
:1009700069F41092A00082E08093A1001092A5007B
:100980001092A40089BB80937200D1CF8111CFCF88
:100990001092200182E08093210110922501109293
:1009A00024018ABB80937300C2CFAF92BF92CF92D3
:1009B000DF92EF92FF920F931F93CF93DF936B0120
:1009C0007A01EC01C953DD4F28813CE0389F80015A
:1009D000399F100D1124A090C602B12C27FF1FC013
:1009E000FB011182108288818F5F88838881980142
:1009F000280F311D87FD3A95F6012A153B051CF499
:100A000088818C30C4F180819181049680349C4926
:100A100008F473C0F60180819181049670C08881CA
:100A20009801280F311D87FD3A952A153B05DCF604
:100A30008881A801480F511D87FD5A95FA01EE0FD4
:100A4000FF1FE40FF51FE553FD4F808186FFCBCFDD
:100A50008881F801E80FF11D87FDFA95CF01EE0FAF
:100A6000FF1FE80FF91FE553FD4F808160E08F7392
:100A70000E94BF02B8CF808191812881A801420FD6
:100A8000511D27FD5A959A01FA01EE0FFF1FE20F43
:100A9000F31FE553FD4F21813281820F931FF70130
:100AA0009183808388819801280F311D87FD3A95B5
:100AB000F901EE0FFF1FE20FF31FE553FD4F808199
:100AC00086FF22C08881080F111D87FD1A95F80145
:100AD000EE0FFF1FE00FF11FE553FD4F808161E036
:100AE0008F73DF91CF911F910F91FF90EF90DF9067
:100AF000CF90BF90AF900C94BF0280E49CE9F701C7
:100B0000918380838FEF8883DF91CF911F910F9125
:100B1000FF90EF90DF90CF90BF90AF9008958F92AD
:100B20009F92AF92BF920F931F93CF93DF93CDB756
:100B3000DEB7A1970FB6F894DEBF0FBECDBF19A2E6
:100B4000423008F44AE08E010F5D1F4F842E912C35
:100B5000B12CA12CA50194010E941F11E62FB9010F
:100B6000CA01EA3044F5E05DD801EE938D01232BF4
:100B7000242B252B79F790E080E0109769F0FD0198
:100B800001900020E9F73197AF014A1B5B0BBD01D3
:100B900087E294E00E94FF01A1960FB6F894DEBFB1
:100BA0000FBECDBFDF91CF911F910F91BF90AF903E
:100BB0009F908F900895E95CD7CFFB0101900020B2
:100BC000E9F73197AF01461B570B0C94FF01CF9308
:100BD000DF93EC0160E08E810E94BF0261E08E81B4
:100BE0000E94BF0260E08E810E94BF028BE891E00C
:100BF0000197F1F7DF91CF910895CF92DF92EF92B5
:100C0000FF920F931F93CF93DF936C017C0187E0DA
:100C1000E80EF11CD0E0C0E0062F10E0B8010C2E69
:100C200002C0759567950A94E2F76170F7018191AA
:100C30007F010E94BF022196C430D10579F7C60119
:100C4000DF91CF911F910F91FF90EF90DF90CF90A8
:100C50000C94E705CF92DF92EF92FF920F931F93D0
:100C6000CF93DF93EC01F62E642F8C810E94BF029C
:100C70008D818F3F19F060E00E94BF020F2D10E0C0
:100C80008F8584FF25C06E0187E0C80ED11CF12C32
:100C9000E12CB8010E2C02C0759567950A94E2F715
:100CA0006170F60181916F010E94BF02FFEFEF1AA0
:100CB000FF0A88E0E816F10461F7CE01DF91CF91D9
:100CC0001F910F91FF90EF90DF90CF900C94E7056C
:100CD000B80184E0759567958A95E1F7CE010E9489
:100CE000FD056F2DCE01DF91CF911F910F91FF90E8
:100CF000EF90DF90CF900C94FD0541E00E942A0612
:100D000081E090E0089540E061E00E942A068BE3D4
:100D10009FE10197F1F708950F931F93CF93DF930E
:100D2000EC01623019F48F8588608F876B8B1C8A89
:100D300080E48D8B80E18E8B80E58F8B61E08C81F0
:100D40000E9436038D818F3F19F061E00E943603C7
:100D500061E08E810E9436038E0198012C1B3D0BB1
:100D60008F8584FD0DC084E090E00F5F1F4F281732
:100D700039074CF461E0F80186810E943603EDCF1B
:100D800088E090E0F2CF8BE39DE00197F1F760E01F
:100D90008C810E94BF0260E08E810E94BF028D8123
:100DA0008F3F19F060E00E94BF026F8564FD37C07D
:100DB00063E0CE010E94FD050BE416E4C801019733
:100DC000F1F763E0CE010E94FD05C8010197F1F73C
:100DD00063E0CE010E94FD0583E592E00197F1F703
:100DE00062E0CE010E94FD056F85606240E0CE01A9
:100DF0000E942A0684E0888B40E06CE0CE010E94CD
:100E00002A06CE010E94830682E0898B40E066E0DC
:100E1000CE01DF91CF911F910F910C942A06606251
:100E200040E0CE010E942A068BE496E40197F1F798
:100E30006F85606240E0CE010E942A0683E592E061
:100E40000197F1F76F85606240E0CE010E942A06AB
:100E5000CBCF0F931F93CF93DF93EC0188819981C0
:100E6000009759F02A813B812617370730F081E03F
:100E7000DF91CF911F910F9108958B016F5F7F4F8D
:100E80000E94BF12009759F0998388831B830A83BD
:100E90002C813D81232B59F7FC011082E8CF80E0A3
:100EA000E7CFEF92FF920F931F93CF93DF93EC0165
:100EB0007B01198218821B821A821D821C82FB010F
:100EC00001900020E9F731978F01061B170BB8013D
:100ED0000E94290728813981811113C0211531050C
:100EE00019F0C9010E943612198218821D821C82D3
:100EF0001B821A82DF91CF911F910F91FF90EF908B
:100F000008951D830C83B701C901DF91CF911F9113
:100F10000F91FF90EF900C94B2131F920F920FB6A7
:100F20000F9211240BB60F922F933F934F935F9321
:100F30006F937F938F939F93AF93BF93EF93FF93A1
:100F40008091740390917503A0917603B09177031B
:100F5000892B8A2B8B2BE1F190916303E091640341
:100F6000F09165038081892780838091740390913B
:100F70007503A0917603B0917703181619061A0627
:100F80001B069CF48091740390917503A0917603E5
:100F9000B09177030197A109B109809374039093ED
:100FA0007503A0937603B0937703FF91EF91BF9100
:100FB000AF919F918F917F916F915F914F913F91F1
:100FC0002F910F900BBE0F900FBE0F901F90189592
:100FD000809118020E94F102E8CF1F920F920FB683
:100FE0000F9211242F933F938F939F93AF93BF93AF
:100FF0008091B4039091B503A091B603B091B7036B
:1010000030915B0323E0230F2D3758F50196A11D86
:10101000B11D20935B038093B4039093B503A09319
:10102000B603B093B70380915C0390915D03A091E8
:101030005E03B0915F030196A11DB11D80935C0317
:1010400090935D03A0935E03B0935F03BF91AF9154
:101050009F918F913F912F910F900FBE0F901F90F6
:10106000189526E8230F0296A11DB11DD2CF1F921D
:101070000F920FB60F9211240BB60F922F933F933E
:101080004F935F936F937F938F939F93AF93BF9390
:10109000EF93FF9348E251E064E271E090E080E07A
:1010A0000E94D504FF91EF91BF91AF919F918F91D5
:1010B0007F916F915F914F913F912F910F900BBE58
:1010C0000F900FBE0F901F9018951F920F920FB6A2
:1010D0000F9211240BB60F922F933F934F935F9370
:1010E0006F937F938F939F93AF93BF93EF93FF93F0
:1010F00048EA50E064EA70E083E090E00E94D504A2
:10110000FF91EF91BF91AF919F918F917F916F91DF
:101110005F914F913F912F910F900BBE0F900FBE9B
:101120000F901F9018951F920F920FB60F921124D7
:101130000BB60F922F933F934F935F936F937F93D1
:101140008F939F93AF93BF93EF93FF9348E950E042
:1011500064E970E082E090E00E94D504FF91EF9195
:10116000BF91AF919F918F917F916F915F914F91BF
:101170003F912F910F900BBE0F900FBE0F901F90BD
:1011800018951F920F920FB60F9211240BB60F9263
:101190002F933F934F935F936F937F938F939F937F
:1011A000AF93BF93EF93FF9348E850E064E870E09B
:1011B00081E090E00E94D504FF91EF91BF91AF9143
:1011C0009F918F917F916F915F914F913F912F915F
:1011D0000F900BBE0F900FBE0F901F901895CF92DF
:1011E000DF92EF92FF920F931F93E82FF92F05C024
:1011F000015011092109310961F190819623941759
:10120000B9F305C0015011092109310911F190818B
:1012100096239413F7CFC12CD12CE12CF12C0AC0CA
:101220008FEFC81AD80AE80AF80A0C151D052E0512
:101230003F0579F080818623841791F36C2D7D2DF5
:101240008E2D9F2D1F910F91FF90EF90DF90CF90EB
:10125000089560E070E080E090E01F910F91FF90B2
:10126000EF90DF90CF900895CF93DF9300D01F923F
:10127000CDB7DEB7789484B5826084BD84B58160D3
:1012800084BD85B5826085BD85B5816085BD809151
:101290006E00816080936E001092810080918100C9
:1012A00082608093810080918100816080938100C1
:1012B000809180008160809380008091B100846083
:1012C0008093B1008091B00081608093B0008091E4
:1012D0009100826080939100809191008160809361
:1012E0009100809190008160809390008091A10096
:1012F00082608093A1008091A10081608093A10011
:101300008091A00081608093A00080912101826083
:10131000809321018091210181608093210180913E
:10132000200181608093200180917A008460809305
:101330007A0080917A00826080937A0080917A00AE
:10134000816080937A0080917A00806880937A002F
:101350001092C10061E08BE00E94360360E08CE0F7
:101360000E94360361E085E10E94360361E084E17A
:101370000E94360361E083E10E94360369E070E079
:1013800087E893E00E944D046AE070E084E893E00F
:101390000E944D0462E087E294E00E948C0665E3BF
:1013A00072E087E294E00E94DD05BFE98B2EBFE08A
:1013B0009B2E44244A94542C3201A4EEAA2EA1E080
:1013C000BA2E81E0809324048FB7F8944091B4033F
:1013D0005091B5036091B6037091B7038FBF8091B0
:1013E000140490911504A0911604B0911704481BA1
:1013F000590B6A0B7B0B8091200490912104B0E083
:10140000A0E084179507A607B70708F03BC110E0D6
:1014100080911E04181760F4E0911A04F0911B04E7
:10142000E10FF11D62E080810E9436031F5FF0CF63
:10143000312C80911F04381608F066C0E32CF12C83
:10144000E0911C04F0911D04EE0DFF1D61E0808110
:101450000E943603E0911C04F0911D04EE0DFF1D67
:1014600060E080810E94BF0281E090E0A0E0B0E0F7
:10147000032C04C0880F991FAA1FBB1F0A94D2F720
:101480009C838B836C01C094D094212C80911E048A
:10149000281618F5022D10E0E0911A04F0911B04B3
:1014A000E00FF11F80810E9493020C5F1F4F000F1D
:1014B000111FF801E854FC4F892B51F48081918170
:1014C0002B813C81822B932B918380832394DECFCD
:1014D000808191818C219D21F7CFE0911C04F091B6
:1014E0001D04EE0DFF1D61E080810E94BF0280910E
:1014F0001C0490911D04E80EF91E60E0F701808144
:101500000E943603339495CF08EB13E07801F7017E
:10151000878D90A1892B31F4148E2FEF3FEF368FFA
:10152000258F11A236E0E30EF11C54EFE51653E0CF
:10153000F50669F7D12C80911E04D81608F053C027
:10154000C12C2D2C312C220C331CC10180549C4FFA
:101550001C0120911F04C21608F043C0F1016081F4
:1015600071810C2C02C0769567950A94E2F7D29EA1
:10157000900111242C0D311DE8EBF3E080E0458D46
:10158000568D2417350709F4FAC28F5F36968A30D4
:10159000B1F760FF24C0E8EBF3E090E080E0448D19
:1015A000411118C0E0911804F0911904E20FF31FE3
:1015B000408156E0589FF001599FF00D1124E854E6
:1015C000FC4F448F368F258F10A2178E61E00E944A
:1015D0008F0105C0019636968A30910501F7C394B4
:1015E000B8CFD394A8CF80E0F80191A19111892FB1
:1015F0000A5F1F4FE016F106B9F79FB7F8944091C4
:10160000B4035091B5036091B6037091B7039FBFC7
:1016100040931404509315046093160470931704B8
:10162000882381F18091D903882361F18091D703C8
:101630009091D803019731F58091D403811125C091
:101640002091B2033091B3038091AC039091AD032C
:101650002817390709F08BC28091AE039091AF0330
:101660006091A8037091A903009709F48AC26115DB
:10167000710509F043C0232B09F490C2FC0180815D
:1016800090E08AC210922404DBCF0091B203109143
:10169000B30389831A820F5F1F4FB8018EEA93E06C
:1016A0000E942907882399F02091AE033091AF035F
:1016B0008091B2039091B303BE016F5F7F4F820FA1
:1016C000931F0E94B2131093B3030093B20387E2F7
:1016D00094E00E9483064091B2035091B30360915D
:1016E000AE037091AF0387E294E00E94FF0164EFC4
:1016F00071E080E090E00E949B03A2CF0E94A913BA
:101700004BC2645F71406F31710568F461E084E140
:101710000E94BF0264EF71E080E090E00E949B03B2
:1017200060E084E1B8C261E083E10E94BF0264EF3F
:1017300071E080E090E00E949B0360E083E1ABC237
:101740008F3F09F053C183E080931802E6ECF1E08B
:101750001491812F1F3F09F449C1123009F465C06B
:1017600060F4112371F1113009F442C087FD3EC1CC
:1017700061E083E00E94360323C3143009F494C06F
:1017800008F474C0153091F71092200110922101D5
:1017900080912101886080932101809121018160E5
:1017A00080932101F5018491E82FF0E0EE0FFF1FF7
:1017B000E455FE4F85919491F101849180936003EB
:1017C000F8C214BC15BC84B5826084BD85B5816047
:1017D00085BDF5018491E82FF0E0EE0FFF1FE45581
:1017E000FE4F85919491F101849180936703E1C24A
:1017F0001092800010928100809181008860809317
:10180000810080918100816080938100F501849145
:10181000E82FF0E0EE0FFF1FE455FE4F8591949105
:10182000F101849180936603C4C21092B0001092BB
:10183000B1008091B00082608093B0008091B100CF
:1018400081608093B100F5018491E82FF0E0EE0F04
:10185000FF1FE455FE4F859194919093650380930B
:101860006403F101849180936303A3C210929000FA
:1018700010929100809191008860809391008091F6
:101880009100816080939100F5018491E82FF0E050
:10189000EE0FFF1FE455FE4F85919491F101849165
:1018A0008093620313E085C21092A0001092A10001
:1018B0008091A10088608093A1008091A100816047
:1018C0008093A100F5018491E82FF0E0EE0FFF1F57
:1018D000E455FE4F85919491F101849180936103C9
:1018E00068C285B5887F836085BD8DE387BD4092E2
:1018F0007C0350927D0360927E0370927F038091FF
:101900006E00826080936E0071C01130C1F48091CE
:101910008100887F8160809381009092890080920D
:101920008800409278035092790360927A03709213
:101930007B0380916F00826080936F0057C01330EB
:10194000C1F480919100887F816080939100909292
:1019500099008092980040927003509271036092B7
:1019600072037092730380917100826080937100A2
:101970003DC01430C1F48091A100887F81608093C4
:10198000A1009092A9008092A80040926C0350920E
:101990006D0360926E0370926F038091720082609B
:1019A0008093720023C01530C1F480912101887F9B
:1019B00081608093210190922901809228014092B8
:1019C00068035092690360926A0370926B0380917E
:1019D000730082608093730009C0123009F441C023
:1019E000ACF51123E1F1113009F497CF62E370E017
:1019F00080E090E00E949B0383E00E94F10266E990
:101A000070E080E090E00E949B03C0908203D09041
:101A10008303B60187E893E00E94D103E09080033E
:101A2000F0908103B70184E893E00E94D103F5E0D0
:101A3000CF0ED11CD0928303C092820325E0E21A1C
:101A4000F108F0928103E0928003A3C1143009F4FD
:101A500098CF0CF47CCF153009F4ADCFC7CF8FE908
:101A600045CF8FE9B7C164EB70E087E893E00E944F
:101A7000D10370E060E084E893E00E94D10382E04B
:101A800090E09093A3038093A2038AE893E00E94DE
:101A9000830683E00E94F1028091A2039091A30348
:101AA000029709F064C08091A4039091A5038E3F32
:101AB00091400CF45CC06EE972E08AE893E00E9409
:101AC000DD0560ED77E080E090E00E949B038AE80E
:101AD00093E00E94830661EB72E08AE893E00E9443
:101AE000DD05109283031092820384EB90E09093C3
:101AF000810380938003009180031091810317FD7F
:101B000022C0B80187E893E00E94D103E0908203ED
:101B1000F0908303B70184E893E00E94D10362E36D
:101B200070E080E090E00E949B035FEFE51AF50A09
:101B3000F0928303E0928203015011091093810314
:101B400000938003D8CF70E060E087E893E00E94C4
:101B5000D10364EB70E084E893E00E94D10310921B
:101B6000A3031092A2038AE893E00E94830680E018
:101B700090E0892B09F425CC0E9400001ECC6170F6
:101B800026CD6115710551F0232B41F0FB018081B9
:101B900090E0919581959109892B49F78091A60351
:101BA0009091A703892B01F587E294E00E948306B8
:101BB00060E472E087E294E00E94DD056CED75E080
:101BC00080E090E00E949B0361E572E087E294E090
:101BD0000E94DD0581E090E09093A7038093A60327
:101BE00087E294E00E94830660E08BE00E94BF02DF
:101BF00083E090E00197F1F761E08BE00E94BF0283
:101C000083E290E00197F1F760E08BE00E94BF0271
:101C1000E3E3F2E06491EDEEF1E0E491F0E0EE0F49
:101C2000FF1FE953FE4F8591949100E412E42FE0E9
:101C300030E0462F0E94EF0861157105810591057E
:101C400029F06F5F7F4F8F4F9F4F9F700E94F40F5F
:101C500026E933E44BE05DE30E942F1020E030E002
:101C600040E05FE30E942F100E9450117093A50383
:101C70006093A4036231F2E07F070CF442CD61E08F
:101C800085E10E94BF0264EF71E080E090E00E9475
:101C90009B0360E085E10E94BF0268EC70E080E099
:101CA00090E00E949B0365E672E087E294E00E9468
:101CB000DD05C090A403D090A5030D2C000CEE0808
:101CC000FF084AE0C701B601F7FE0EC041E06DE231
:101CD00087E294E00E942A0666277727CB016C19D9
:101CE0007D098E099F094AE00E948F056FE672E028
:101CF00087E294E00E94DD0564EF71E080E090E00F
:101D00000E949B0387E294E00E9483068091A203D5
:101D10009091A303892B09F0BFCE8091A4039091E9
:101D2000A503853F91400CF0B7CE62E772E08AE8E8
:101D300093E00E94DD0568EE73E080E090E00E9491
:101D40009B038AE893E00E9483066BE772E08AE8CF
:101D500093E00E94DD0560ED77E080E090E00E9476
:101D60009B038AE893E00E9483066EE872E08AE8AB
:101D700093E00E94DD05109283031092820384EBAE
:101D800090E090938103809380036AE2262E62E0C4
:101D9000362E809180039091810397FD64CE8091CF
:101DA0001802833009F0CCCCE6ECF1E0149117FD79
:101DB0001DCE61E083E00E943603112309F491CD2A
:101DC000123009F0A2CD8091B100887F83608093AA
:101DD000B1008CE78093B300409274035092750376
:101DE0006092760370927703809170008260809396
:101DF0007000FCCD0F931F93CF931092BA031092F3
:101E0000BE031092BD031092BF038FE292E0909345
:101E1000B9038093B803E4EDF3E0108214821382D7
:101E20001582369684E0E031F807B9F784E092E055
:101E300090931B0480931A0480E092E090931D0419
:101E400080931C0484E080931E0480931F0428E088
:101E500032E030931904209318042AE030E03093E4
:101E600021042093200424EF31E0309323042093B5
:101E70002204109226041092250410921404109249
:101E80001504109216041092170410922404109254
:101E90002A041092290403E212E01093280400930C
:101EA00027049DE090932B04CFEFC0932C0498E07F
:101EB00090932D0497E090932E0496E090932F0436
:101EC00095E0909330048093310410923204109284
:101ED000330410923404109235041092360461E0F9
:101EE00087E294E00E948C0610928D0310928C037E
:101EF00010938B0300938A0385E380938E03C09332
:101F00008F0384E38093900383E38093910382E3C0
:101F10008093920381E38093930380E380939403FF
:101F200010929503109296031092970310929803C3
:101F30001092990361E08AE893E00E948C068091F8
:101F4000C6028033B8F591E0980F9093C602809353
:101F5000870390E0FC01EE0FFF1FE80FF91FE55328
:101F6000FD4F88EB9BE0928381838091C602803392
:101F700020F591E0980F9093C6028093840390E03F
:101F8000FC01EE0FFF1FE80FF91FE553FD4F88EB33
:101F90009BE09283818361EC72E088EA93E00E9487
:101FA00051076EE672E08EEA93E0CF911F910F9198
:101FB0000C945107C0938703D8CF8FEF809384038D
:101FC000EACF8091AE039091AF03009711F00E9489
:101FD00036128091A8039091A903009711F00C94F8
:101FE00036120895E89409C097FB3EF490958095C9
:101FF000709561957F4F8F4F9F4F9923A9F0F92FCF
:1020000096E9BB279395F695879577956795B7954C
:10201000F111F8CFFAF4BB0F11F460FF1BC06F5F32
:102020007F4F8F4F9F4F16C0882311F096E911C044
:10203000772321F09EE8872F762F05C0662371F065
:1020400096E8862F70E060E02AF09A95660F771F79
:10205000881FDAF7880F9695879597F908950E945B
:1020600042100C94B3100E94A51038F00E94AC10DE
:1020700020F0952311F00C949C100C94A2101124C4
:102080000C94E7100E94C41070F3959FC1F3950F54
:1020900050E0551F629FF001729FBB27F00DB11DEC
:1020A000639FAA27F00DB11DAA1F649F6627B00D7C
:1020B000A11D661F829F2227B00DA11D621F739F65
:1020C000B00DA11D621F839FA00D611D221F749F73
:1020D0003327A00D611D231F849F600D211D822FBA
:1020E000762F6A2F11249F5750409AF0F1F08823E1
:1020F0004AF0EE0FFF1FBB1F661F771F881F91500E
:102100005040A9F79E3F510580F00C949C100C9410
:10211000E7105F3FE4F3983ED4F386957795679593
:10212000B795F795E7959F5FC1F7FE2B880F911D37
:102130009695879597F9089597F99F6780E870E0DD
:1021400060E008959FEF80EC089500240A9416162D
:10215000170618060906089500240A941216130695
:10216000140605060895092E0394000C11F4882323
:1021700052F0BB0F40F4BF2B11F460FF04C06F5F3F
:102180007F4F8F4F9F4F089557FD9058440F551F15
:1021900059F05F3F71F04795880F97FB991F61F0E9
:1021A0009F3F79F087950895121613061406551F60
:1021B000F2CF4695F1DF08C0161617061806991FCC
:1021C000F1CF86957105610508940895E894BB27C1
:1021D00066277727CB0197F90895052E97FB1EF404
:1021E00000940E94041157FD07D00E941F1107FCA4
:1021F00003D04EF40C9404115095409530952195E0
:102200003F4F4F4F5F4F0895909580957095619522
:102210007F4F8F4F9F4F08950E944111A59F900DB2
:10222000B49F900DA49F800D911D11240895B7FFB8
:102230000C940C110E940C11821B930B0895A1E2C7
:102240001A2EAA1BBB1BFD010DC0AA1FBB1FEE1F30
:10225000FF1FA217B307E407F50720F0A21BB30B7B
:10226000E40BF50B661F771F881F991F1A9469F7F7
:1022700060957095809590959B01AC01BD01CF0153
:102280000895A29FB001B39FC001A39F700D811D4F
:102290001124911DB29F700D811D1124911D08956F
:1022A0000E9457116894B1110C94E71008950E9490
:1022B000CC1088F09F5798F0B92F9927B751B0F0FC
:1022C000E1F0660F771F881F991F1AF0BA95C9F7BA
:1022D00014C0B13091F00E94E610B1E008950C9462
:1022E000E610672F782F8827B85F39F0B93FCCF315
:1022F000869577956795B395D9F73EF49095809537
:10230000709561957F4F8F4F9F4F0895991B79E08E
:1023100004C0991F961708F0961B881F7A95C9F775
:1023200080950895EE0FFF1F881F8BBF0790F691D1
:10233000E02D19940F931F93CF93DF938230910573
:1023400010F482E090E0E0914104F091420430E02A
:1023500020E0B0E0A0E0309799F42115310509F4B0
:102360004AC0281B390B24303105D8F58A819B815E
:102370006115710589F1FB0193838283FE0111C010
:10238000408151810281138148175907E0F04817B5
:10239000590799F4109761F012960C9312971396BF
:1023A0001C933296CF01DF91CF911F910F91089529
:1023B0000093410410934204F4CF2115310551F0EC
:1023C0004217530738F0A901DB019A01BD01DF0173
:1023D000F801C1CFEF01F9CF9093420480934104FB
:1023E000CDCFFE01E20FF31F81939193225031096B
:1023F00039832883D7CF20913F0430914004232B89
:1024000041F420911B0230911C0230934004209330
:102410003F042091190230911A022115310541F42F
:102420002DB73EB740911D0250911E02241B350B63
:10243000E0913F04F0914004E217F307A0F42E1B53
:102440003F0B2817390778F0AC014E5F5F4F241718
:10245000350748F04E0F5F1F5093400440933F04F0
:10246000819391939FCFF0E0E0E09CCFCF93DF93F7
:102470000097E9F0FC01329713821282A091410487
:10248000B0914204ED0130E020E01097A1F42081EA
:102490003181820F931F20913F043091400428170F
:1024A000390709F061C0F0934004E0933F04DF91E5
:1024B000CF910895EA01CE17DF07E8F54A815B81E5
:1024C0009E0141155105B1F7E901FB83EA8349916A
:1024D0005991C40FD51FEC17FD0761F480819181DC
:1024E0000296840F951FE9019983888382819381E5
:1024F0009B838A83F0E0E0E012968D919C91139784
:102500000097B9F52D913C911197CD010296820F5C
:10251000931F20913F04309140042817390739F662
:10252000309751F51092420410924104B093400448
:10253000A0933F04BCCFD383C28340815181840FD9
:10254000951FC817D90761F44E5F5F4F8881998145
:10255000480F591F518340838A819B8193838283D3
:102560002115310509F0B0CFF0934204E093410406
:102570009ECFFD01DC01C0CF13821282D7CF4F92D4
:102580005F926F927F928F929F92AF92BF92CF9203
:10259000DF92EF92FF920F931F93CF93DF938C0103
:1025A000009799F4CB01DF91CF911F910F91FF908C
:1025B000EF90DF90CF90BF90AF909F908F907F90E3
:1025C0006F905F904F900C949A11FC01E60FF71FEB
:1025D0009C0122503109E217F30708F4AEC0D9017B
:1025E000CD91DC911197C617D70720F1C530D105E1
:1025F00078F0CE0104978617970750F0C61BD70BCB
:102600002297C193D1936D937C93CF010E94361290
:10261000C801DF91CF911F910F91FF90EF90DF9054
:10262000CF90BF90AF909F908F907F906F905F9072
:102630004F9008955B01AC1ABD0A4C018C0E9D1E93
:10264000A0914104B0914204512C412CF12CE12C79
:10265000109731F580913F049091400488159905B9
:1026600009F05CC04616570608F058C08091190260
:1026700090911A02009741F48DB79EB740911D02C8
:1026800050911E02841B950BE817F90708F055C0FE
:10269000F0934004E0933F04F90171836083B8CF65
:1026A0008D919C91119712966C90129713967C9035
:1026B0001397A815B90559F56C0142E0C40ED11C59
:1026C000CA14DB0420F1AC014A195B09DA01129645
:1026D000159780F06282738251834083D9016D9394
:1026E0007C93E114F10471F0D7011396FC93EE93FF
:1026F00012978ECF22968C0F9D1FF90191838083B4
:10270000F301EFCFF0934204E093410481CF4816E8
:10271000590608F42C017D01D3019ACFCB010E9408
:102720009A117C01009749F0AE01B8010E94A013F4
:10273000C8010E94361287016BCF10E000E068CF1D
:10274000FB01DC0102C001900D9241505040D8F7CE
:102750000895FB01DC018D91019080190110D9F3DE
:10276000990B0895FB01DC0101900D920020E1F727
:10277000089511E0C8E3D1E000E006C0802FFE011B
:102780000E9492112196011DC933D10780E00807EC
:06279000A9F7F894FFCF49
:102796001D1E1F20191A1B1C3738392F3435362AAF
:1027A6003132332D63303D2BFF000043048000009F
:1027B6000000007D06FF01CE03CD0300000000727D
:1027C60003ED02BC02456E74657220436F646500BA
:1027D60053797374656D2020537461727465642136
:1027E6000053797374656D20486173205374617268
:1027F600746564210044697374616E6365200063C7
:102806006D005761726E696E67210057617465725B
:10281600204C6576656C20526973656E21004761B0
:10282600746520497320436C6F73696E6700576146
:10283600746572204C6576656C204E6F726D616CA6
:102846000047617465204973204F70656E696E6735
:06285600003132333400B2
:00000001FF
